{
  "contractName": "ShareFile",
  "abi": [
    {
      "anonymous": false,
      "inputs": [
        {
          "indexed": false,
          "internalType": "string",
          "name": "fileHash",
          "type": "string"
        },
        {
          "indexed": true,
          "internalType": "address",
          "name": "owner",
          "type": "address"
        },
        {
          "indexed": true,
          "internalType": "address",
          "name": "recipient",
          "type": "address"
        }
      ],
      "name": "FileShared",
      "type": "event"
    },
    {
      "inputs": [
        {
          "internalType": "string",
          "name": "",
          "type": "string"
        }
      ],
      "name": "files",
      "outputs": [
        {
          "internalType": "address",
          "name": "owner",
          "type": "address"
        },
        {
          "internalType": "string",
          "name": "fileHash",
          "type": "string"
        },
        {
          "internalType": "address",
          "name": "recipient",
          "type": "address"
        }
      ],
      "stateMutability": "view",
      "type": "function",
      "constant": true
    },
    {
      "inputs": [
        {
          "internalType": "string",
          "name": "fileHash",
          "type": "string"
        },
        {
          "internalType": "address",
          "name": "recipient",
          "type": "address"
        }
      ],
      "name": "shareFile",
      "outputs": [],
      "stateMutability": "nonpayable",
      "type": "function"
    }
  ],
  "bytecode": "0x608060405234801561001057600080fd5b5061079c806100206000396000f3fe608060405234801561001057600080fd5b50600436106100365760003560e01c8063e77557611461003b578063ebceb82c1461006d575b600080fd5b6100556004803603810190610050919061042d565b610089565b60405161006493929190610552565b60405180910390f35b6100876004803603810190610082919061046e565b610191565b005b6000818051602081018201805184825260208301602085012081835280955050505050506000915090508060000160009054906101000a900473ffffffffffffffffffffffffffffffffffffffff16908060010180546100e8906106ae565b80601f0160208091040260200160405190810160405280929190818152602001828054610114906106ae565b80156101615780601f1061013657610100808354040283529160200191610161565b820191906000526020600020905b81548152906001019060200180831161014457829003601f168201915b5050505050908060020160009054906101000a900473ffffffffffffffffffffffffffffffffffffffff16905083565b60405180606001604052803373ffffffffffffffffffffffffffffffffffffffff1681526020018381526020018273ffffffffffffffffffffffffffffffffffffffff168152506000836040516101e8919061053b565b908152602001604051809103902060008201518160000160006101000a81548173ffffffffffffffffffffffffffffffffffffffff021916908373ffffffffffffffffffffffffffffffffffffffff160217905550602082015181600101908051906020019061025992919061030d565b5060408201518160020160006101000a81548173ffffffffffffffffffffffffffffffffffffffff021916908373ffffffffffffffffffffffffffffffffffffffff1602179055509050508073ffffffffffffffffffffffffffffffffffffffff163373ffffffffffffffffffffffffffffffffffffffff167f8cfe3694d3c81d8f37212834f204c59322399b95a805e4351371085b98c697dc846040516103019190610590565b60405180910390a35050565b828054610319906106ae565b90600052602060002090601f01602090048101928261033b5760008555610382565b82601f1061035457805160ff1916838001178555610382565b82800160010185558215610382579182015b82811115610381578251825591602001919060010190610366565b5b50905061038f9190610393565b5090565b5b808211156103ac576000816000905550600101610394565b5090565b60006103c36103be846105e3565b6105b2565b9050828152602081018484840111156103db57600080fd5b6103e684828561066c565b509392505050565b6000813590506103fd8161074f565b92915050565b600082601f83011261041457600080fd5b81356104248482602086016103b0565b91505092915050565b60006020828403121561043f57600080fd5b600082013567ffffffffffffffff81111561045957600080fd5b61046584828501610403565b91505092915050565b6000806040838503121561048157600080fd5b600083013567ffffffffffffffff81111561049b57600080fd5b6104a785828601610403565b92505060206104b8858286016103ee565b9150509250929050565b6104cb8161063a565b82525050565b60006104dc82610613565b6104e6818561061e565b93506104f681856020860161067b565b6104ff8161073e565b840191505092915050565b600061051582610613565b61051f818561062f565b935061052f81856020860161067b565b80840191505092915050565b6000610547828461050a565b915081905092915050565b600060608201905061056760008301866104c2565b818103602083015261057981856104d1565b905061058860408301846104c2565b949350505050565b600060208201905081810360008301526105aa81846104d1565b905092915050565b6000604051905081810181811067ffffffffffffffff821117156105d9576105d861070f565b5b8060405250919050565b600067ffffffffffffffff8211156105fe576105fd61070f565b5b601f19601f8301169050602081019050919050565b600081519050919050565b600082825260208201905092915050565b600081905092915050565b60006106458261064c565b9050919050565b600073ffffffffffffffffffffffffffffffffffffffff82169050919050565b82818337600083830152505050565b60005b8381101561069957808201518184015260208101905061067e565b838111156106a8576000848401525b50505050565b600060028204905060018216806106c657607f821691505b602082108114156106da576106d96106e0565b5b50919050565b7f4e487b7100000000000000000000000000000000000000000000000000000000600052602260045260246000fd5b7f4e487b7100000000000000000000000000000000000000000000000000000000600052604160045260246000fd5b6000601f19601f8301169050919050565b6107588161063a565b811461076357600080fd5b5056fea2646970667358221220eb6f6345d15729ad29c106b282817638e9dc6390fd7bc9e05cc29734fccb7f6964736f6c63430008000033",
  "immutableReferences": {},
  "source": "// SPDX-License-Identifier: MIT\r\npragma solidity ^0.8.0;\r\n\r\ncontract ShareFile {\r\n    struct File {\r\n        address owner;\r\n        string fileHash;\r\n        address recipient;\r\n    }\r\n\r\n    mapping(string => File) public files;\r\n\r\n    event FileShared(string fileHash, address indexed owner, address indexed recipient);\r\n\r\n    function shareFile(string memory fileHash, address recipient) public {\r\n        files[fileHash] = File(msg.sender, fileHash, recipient);\r\n        emit FileShared(fileHash, msg.sender, recipient);\r\n    }\r\n}\r\n",
  "sourcePath": "C:\\Users\\harin\\Downloads\\New folder (42)\\secure-cloud-storage-master\\blockchain\\contracts\\ShareFile.sol",
  "compiler": {
    "name": "solc",
    "version": "0.8.0+commit.c7dfd78e.Emscripten.clang"
  },
  "schemaVersion": "3.4.16",
  "updatedAt": "2024-05-14T17:29:23.245Z",
  "networkType": "ethereum",
  "devdoc": {
    "kind": "dev",
    "methods": {},
    "version": 1
  },
  "userdoc": {
    "kind": "user",
    "methods": {},
    "version": 1
  }
}